{
  "_format": "hh-sol-artifact-1",
  "contractName": "NFTMarketplace",
  "sourceName": "contracts/NFTMarketplace.sol",
  "abi": [
    {
      "inputs": [],
      "stateMutability": "nonpayable",
      "type": "constructor"
    },
    {
      "anonymous": false,
      "inputs": [
        {
          "indexed": true,
          "internalType": "address",
          "name": "owner",
          "type": "address"
        },
        {
          "indexed": true,
          "internalType": "address",
          "name": "approved",
          "type": "address"
        },
        {
          "indexed": true,
          "internalType": "uint256",
          "name": "tokenId",
          "type": "uint256"
        }
      ],
      "name": "Approval",
      "type": "event"
    },
    {
      "anonymous": false,
      "inputs": [
        {
          "indexed": true,
          "internalType": "address",
          "name": "owner",
          "type": "address"
        },
        {
          "indexed": true,
          "internalType": "address",
          "name": "operator",
          "type": "address"
        },
        {
          "indexed": false,
          "internalType": "bool",
          "name": "approved",
          "type": "bool"
        }
      ],
      "name": "ApprovalForAll",
      "type": "event"
    },
    {
      "anonymous": false,
      "inputs": [
        {
          "indexed": true,
          "internalType": "uint256",
          "name": "tokenId",
          "type": "uint256"
        },
        {
          "indexed": false,
          "internalType": "address",
          "name": "seller",
          "type": "address"
        },
        {
          "indexed": false,
          "internalType": "address",
          "name": "newOwner",
          "type": "address"
        }
      ],
      "name": "CreateMarketSale",
      "type": "event"
    },
    {
      "anonymous": false,
      "inputs": [
        {
          "indexed": false,
          "internalType": "string",
          "name": "tokenURI",
          "type": "string"
        },
        {
          "indexed": true,
          "internalType": "uint256",
          "name": "tokenId",
          "type": "uint256"
        },
        {
          "indexed": false,
          "internalType": "address",
          "name": "seller",
          "type": "address"
        },
        {
          "indexed": false,
          "internalType": "address",
          "name": "owner",
          "type": "address"
        },
        {
          "indexed": false,
          "internalType": "uint256",
          "name": "price",
          "type": "uint256"
        },
        {
          "indexed": false,
          "internalType": "bool",
          "name": "sold",
          "type": "bool"
        },
        {
          "indexed": false,
          "internalType": "uint256",
          "name": "timestamp",
          "type": "uint256"
        }
      ],
      "name": "MarketItemCreated",
      "type": "event"
    },
    {
      "anonymous": false,
      "inputs": [
        {
          "indexed": true,
          "internalType": "uint256",
          "name": "tokenId",
          "type": "uint256"
        },
        {
          "indexed": false,
          "internalType": "address",
          "name": "newCreator",
          "type": "address"
        },
        {
          "indexed": false,
          "internalType": "address",
          "name": "newOwner",
          "type": "address"
        },
        {
          "indexed": false,
          "internalType": "uint256",
          "name": "newPrice",
          "type": "uint256"
        }
      ],
      "name": "ResellToken",
      "type": "event"
    },
    {
      "anonymous": false,
      "inputs": [
        {
          "indexed": true,
          "internalType": "address",
          "name": "from",
          "type": "address"
        },
        {
          "indexed": true,
          "internalType": "address",
          "name": "to",
          "type": "address"
        },
        {
          "indexed": true,
          "internalType": "uint256",
          "name": "tokenId",
          "type": "uint256"
        }
      ],
      "name": "Transfer",
      "type": "event"
    },
    {
      "inputs": [
        {
          "internalType": "address",
          "name": "to",
          "type": "address"
        },
        {
          "internalType": "uint256",
          "name": "tokenId",
          "type": "uint256"
        }
      ],
      "name": "approve",
      "outputs": [],
      "stateMutability": "nonpayable",
      "type": "function"
    },
    {
      "inputs": [
        {
          "internalType": "address",
          "name": "owner",
          "type": "address"
        }
      ],
      "name": "balanceOf",
      "outputs": [
        {
          "internalType": "uint256",
          "name": "",
          "type": "uint256"
        }
      ],
      "stateMutability": "view",
      "type": "function"
    },
    {
      "inputs": [
        {
          "internalType": "uint256",
          "name": "tokenId",
          "type": "uint256"
        }
      ],
      "name": "createMarketSale",
      "outputs": [],
      "stateMutability": "payable",
      "type": "function"
    },
    {
      "inputs": [
        {
          "internalType": "string",
          "name": "tokenURI",
          "type": "string"
        },
        {
          "internalType": "uint256",
          "name": "price",
          "type": "uint256"
        }
      ],
      "name": "createToken",
      "outputs": [
        {
          "internalType": "uint256",
          "name": "",
          "type": "uint256"
        }
      ],
      "stateMutability": "payable",
      "type": "function"
    },
    {
      "inputs": [],
      "name": "fetchItemsListed",
      "outputs": [
        {
          "components": [
            {
              "internalType": "uint256",
              "name": "tokenId",
              "type": "uint256"
            },
            {
              "internalType": "address payable",
              "name": "seller",
              "type": "address"
            },
            {
              "internalType": "address payable",
              "name": "owner",
              "type": "address"
            },
            {
              "internalType": "uint256",
              "name": "price",
              "type": "uint256"
            },
            {
              "internalType": "bool",
              "name": "sold",
              "type": "bool"
            },
            {
              "internalType": "uint256",
              "name": "timestamp",
              "type": "uint256"
            }
          ],
          "internalType": "struct NFTMarketplace.MarketItem[]",
          "name": "",
          "type": "tuple[]"
        }
      ],
      "stateMutability": "view",
      "type": "function"
    },
    {
      "inputs": [],
      "name": "fetchMarketItems",
      "outputs": [
        {
          "components": [
            {
              "internalType": "uint256",
              "name": "tokenId",
              "type": "uint256"
            },
            {
              "internalType": "address payable",
              "name": "seller",
              "type": "address"
            },
            {
              "internalType": "address payable",
              "name": "owner",
              "type": "address"
            },
            {
              "internalType": "uint256",
              "name": "price",
              "type": "uint256"
            },
            {
              "internalType": "bool",
              "name": "sold",
              "type": "bool"
            },
            {
              "internalType": "uint256",
              "name": "timestamp",
              "type": "uint256"
            }
          ],
          "internalType": "struct NFTMarketplace.MarketItem[]",
          "name": "",
          "type": "tuple[]"
        }
      ],
      "stateMutability": "view",
      "type": "function"
    },
    {
      "inputs": [],
      "name": "fetchMyNFTs",
      "outputs": [
        {
          "components": [
            {
              "internalType": "uint256",
              "name": "tokenId",
              "type": "uint256"
            },
            {
              "internalType": "address payable",
              "name": "seller",
              "type": "address"
            },
            {
              "internalType": "address payable",
              "name": "owner",
              "type": "address"
            },
            {
              "internalType": "uint256",
              "name": "price",
              "type": "uint256"
            },
            {
              "internalType": "bool",
              "name": "sold",
              "type": "bool"
            },
            {
              "internalType": "uint256",
              "name": "timestamp",
              "type": "uint256"
            }
          ],
          "internalType": "struct NFTMarketplace.MarketItem[]",
          "name": "",
          "type": "tuple[]"
        }
      ],
      "stateMutability": "view",
      "type": "function"
    },
    {
      "inputs": [
        {
          "internalType": "uint256",
          "name": "tokenId",
          "type": "uint256"
        }
      ],
      "name": "getApproved",
      "outputs": [
        {
          "internalType": "address",
          "name": "",
          "type": "address"
        }
      ],
      "stateMutability": "view",
      "type": "function"
    },
    {
      "inputs": [],
      "name": "getListingPrice",
      "outputs": [
        {
          "internalType": "uint256",
          "name": "",
          "type": "uint256"
        }
      ],
      "stateMutability": "view",
      "type": "function"
    },
    {
      "inputs": [
        {
          "internalType": "address",
          "name": "owner",
          "type": "address"
        },
        {
          "internalType": "address",
          "name": "operator",
          "type": "address"
        }
      ],
      "name": "isApprovedForAll",
      "outputs": [
        {
          "internalType": "bool",
          "name": "",
          "type": "bool"
        }
      ],
      "stateMutability": "view",
      "type": "function"
    },
    {
      "inputs": [],
      "name": "name",
      "outputs": [
        {
          "internalType": "string",
          "name": "",
          "type": "string"
        }
      ],
      "stateMutability": "view",
      "type": "function"
    },
    {
      "inputs": [
        {
          "internalType": "uint256",
          "name": "tokenId",
          "type": "uint256"
        }
      ],
      "name": "ownerOf",
      "outputs": [
        {
          "internalType": "address",
          "name": "",
          "type": "address"
        }
      ],
      "stateMutability": "view",
      "type": "function"
    },
    {
      "inputs": [
        {
          "internalType": "uint256",
          "name": "tokenId",
          "type": "uint256"
        },
        {
          "internalType": "uint256",
          "name": "price",
          "type": "uint256"
        }
      ],
      "name": "resellToken",
      "outputs": [],
      "stateMutability": "payable",
      "type": "function"
    },
    {
      "inputs": [
        {
          "internalType": "address",
          "name": "from",
          "type": "address"
        },
        {
          "internalType": "address",
          "name": "to",
          "type": "address"
        },
        {
          "internalType": "uint256",
          "name": "tokenId",
          "type": "uint256"
        }
      ],
      "name": "safeTransferFrom",
      "outputs": [],
      "stateMutability": "nonpayable",
      "type": "function"
    },
    {
      "inputs": [
        {
          "internalType": "address",
          "name": "from",
          "type": "address"
        },
        {
          "internalType": "address",
          "name": "to",
          "type": "address"
        },
        {
          "internalType": "uint256",
          "name": "tokenId",
          "type": "uint256"
        },
        {
          "internalType": "bytes",
          "name": "data",
          "type": "bytes"
        }
      ],
      "name": "safeTransferFrom",
      "outputs": [],
      "stateMutability": "nonpayable",
      "type": "function"
    },
    {
      "inputs": [
        {
          "internalType": "address",
          "name": "operator",
          "type": "address"
        },
        {
          "internalType": "bool",
          "name": "approved",
          "type": "bool"
        }
      ],
      "name": "setApprovalForAll",
      "outputs": [],
      "stateMutability": "nonpayable",
      "type": "function"
    },
    {
      "inputs": [
        {
          "internalType": "bytes4",
          "name": "interfaceId",
          "type": "bytes4"
        }
      ],
      "name": "supportsInterface",
      "outputs": [
        {
          "internalType": "bool",
          "name": "",
          "type": "bool"
        }
      ],
      "stateMutability": "view",
      "type": "function"
    },
    {
      "inputs": [],
      "name": "symbol",
      "outputs": [
        {
          "internalType": "string",
          "name": "",
          "type": "string"
        }
      ],
      "stateMutability": "view",
      "type": "function"
    },
    {
      "inputs": [
        {
          "internalType": "uint256",
          "name": "tokenId",
          "type": "uint256"
        }
      ],
      "name": "tokenURI",
      "outputs": [
        {
          "internalType": "string",
          "name": "",
          "type": "string"
        }
      ],
      "stateMutability": "view",
      "type": "function"
    },
    {
      "inputs": [
        {
          "internalType": "address",
          "name": "from",
          "type": "address"
        },
        {
          "internalType": "address",
          "name": "to",
          "type": "address"
        },
        {
          "internalType": "uint256",
          "name": "tokenId",
          "type": "uint256"
        }
      ],
      "name": "transferFrom",
      "outputs": [],
      "stateMutability": "nonpayable",
      "type": "function"
    },
    {
      "inputs": [
        {
          "internalType": "uint256",
          "name": "_listingPrice",
          "type": "uint256"
        }
      ],
      "name": "updateListingPrice",
      "outputs": [],
      "stateMutability": "payable",
      "type": "function"
    }
  ],
  "bytecode": "0x60806040526608e1bc9bf040006009553480156200001c57600080fd5b506040518060400160405280601081526020017f4d657461766572736520546f6b656e73000000000000000000000000000000008152506040518060400160405280600481526020017f4d455454000000000000000000000000000000000000000000000000000000008152508160009080519060200190620000a192919062000104565b508060019080519060200190620000ba92919062000104565b50505033600a60006101000a81548173ffffffffffffffffffffffffffffffffffffffff021916908373ffffffffffffffffffffffffffffffffffffffff16021790555062000219565b8280546200011290620001b4565b90600052602060002090601f01602090048101928262000136576000855562000182565b82601f106200015157805160ff191683800117855562000182565b8280016001018555821562000182579182015b828111156200018157825182559160200191906001019062000164565b5b50905062000191919062000195565b5090565b5b80821115620001b057600081600090555060010162000196565b5090565b60006002820490506001821680620001cd57607f821691505b60208210811415620001e457620001e3620001ea565b5b50919050565b7f4e487b7100000000000000000000000000000000000000000000000000000000600052602260045260246000fd5b6144d980620002296000396000f3fe60806040526004361061012a5760003560e01c80636352211e116100ab578063ae677aa31161006f578063ae677aa3146103f9578063b88d4fde14610415578063be9af5361461043e578063c87b56dd1461045a578063e219fc7514610497578063e985e9c5146104b35761012a565b80636352211e146102fb57806370a082311461033857806372b3b6201461037557806395d89b41146103a5578063a22cb465146103d05761012a565b806312e85585116100f257806312e8558514610228578063202e37401461025357806323b872dd1461027e57806342842e0e146102a757806345f8fa80146102d05761012a565b806301ffc9a71461012f57806306fdde031461016c578063081812fc14610197578063095ea7b3146101d45780630f08efe0146101fd575b600080fd5b34801561013b57600080fd5b50610156600480360381019061015191906131ab565b6104f0565b6040516101639190613859565b60405180910390f35b34801561017857600080fd5b506101816105d2565b60405161018e9190613874565b60405180910390f35b3480156101a357600080fd5b506101be60048036038101906101b99190613251565b610664565b6040516101cb9190613770565b60405180910390f35b3480156101e057600080fd5b506101fb60048036038101906101f6919061316f565b6106aa565b005b34801561020957600080fd5b506102126107c2565b60405161021f9190613837565b60405180910390f35b34801561023457600080fd5b5061023d610a81565b60405161024a9190613b5e565b60405180910390f35b34801561025f57600080fd5b50610268610a8b565b6040516102759190613837565b60405180910390f35b34801561028a57600080fd5b506102a560048036038101906102a09190613069565b610dcf565b005b3480156102b357600080fd5b506102ce60048036038101906102c99190613069565b610e2f565b005b3480156102dc57600080fd5b506102e5610e4f565b6040516102f29190613837565b60405180910390f35b34801561030757600080fd5b50610322600480360381019061031d9190613251565b611193565b60405161032f9190613770565b60405180910390f35b34801561034457600080fd5b5061035f600480360381019061035a9190613004565b61121a565b60405161036c9190613b5e565b60405180910390f35b61038f600480360381019061038a91906131fd565b6112d2565b60405161039c9190613b5e565b60405180910390f35b3480156103b157600080fd5b506103ba611315565b6040516103c79190613874565b60405180910390f35b3480156103dc57600080fd5b506103f760048036038101906103f29190613133565b6113a7565b005b610413600480360381019061040e9190613251565b6113bd565b005b34801561042157600080fd5b5061043c600480360381019061043791906130b8565b611457565b005b61045860048036038101906104539190613251565b6114b9565b005b34801561046657600080fd5b50610481600480360381019061047c9190613251565b6117d6565b60405161048e9190613874565b60405180910390f35b6104b160048036038101906104ac919061327a565b6118e9565b005b3480156104bf57600080fd5b506104da60048036038101906104d5919061302d565b611b1a565b6040516104e79190613859565b60405180910390f35b60007f80ac58cd000000000000000000000000000000000000000000000000000000007bffffffffffffffffffffffffffffffffffffffffffffffffffffffff1916827bffffffffffffffffffffffffffffffffffffffffffffffffffffffff191614806105bb57507f5b5e139f000000000000000000000000000000000000000000000000000000007bffffffffffffffffffffffffffffffffffffffffffffffffffffffff1916827bffffffffffffffffffffffffffffffffffffffffffffffffffffffff1916145b806105cb57506105ca82611bae565b5b9050919050565b6060600080546105e190613e04565b80601f016020809104026020016040519081016040528092919081815260200182805461060d90613e04565b801561065a5780601f1061062f5761010080835404028352916020019161065a565b820191906000526020600020905b81548152906001019060200180831161063d57829003601f168201915b5050505050905090565b600061066f82611c18565b6004600083815260200190815260200160002060009054906101000a900473ffffffffffffffffffffffffffffffffffffffff169050919050565b60006106b582611193565b90508073ffffffffffffffffffffffffffffffffffffffff168373ffffffffffffffffffffffffffffffffffffffff161415610726576040517f08c379a000000000000000000000000000000000000000000000000000000000815260040161071d90613abe565b60405180910390fd5b8073ffffffffffffffffffffffffffffffffffffffff16610745611c63565b73ffffffffffffffffffffffffffffffffffffffff16148061077457506107738161076e611c63565b611b1a565b5b6107b3576040517f08c379a00000000000000000000000000000000000000000000000000000000081526004016107aa90613afe565b60405180910390fd5b6107bd8383611c6b565b505050565b606060006107d06007611d24565b905060006107de6008611d24565b6107e86007611d24565b6107f29190613cd2565b90506000808267ffffffffffffffff811115610837577f4e487b7100000000000000000000000000000000000000000000000000000000600052604160045260246000fd5b60405190808252806020026020018201604052801561087057816020015b61085d612dc4565b8152602001906001900390816108555790505b50905060005b84811015610a76573073ffffffffffffffffffffffffffffffffffffffff16600b60006001846108a69190613c7c565b815260200190815260200160002060020160009054906101000a900473ffffffffffffffffffffffffffffffffffffffff1673ffffffffffffffffffffffffffffffffffffffff161415610a635760006001826109039190613c7c565b90506000600b60008381526020019081526020016000209050806040518060c0016040529081600082015481526020016001820160009054906101000a900473ffffffffffffffffffffffffffffffffffffffff1673ffffffffffffffffffffffffffffffffffffffff1673ffffffffffffffffffffffffffffffffffffffff1681526020016002820160009054906101000a900473ffffffffffffffffffffffffffffffffffffffff1673ffffffffffffffffffffffffffffffffffffffff1673ffffffffffffffffffffffffffffffffffffffff168152602001600382015481526020016004820160009054906101000a900460ff16151515158152602001600582015481525050848681518110610a46577f4e487b7100000000000000000000000000000000000000000000000000000000600052603260045260246000fd5b6020026020010181905250600185610a5e9190613c7c565b945050505b8080610a6e90613e67565b915050610876565b508094505050505090565b6000600954905090565b60606000610a996007611d24565b905060008060005b83811015610b42573373ffffffffffffffffffffffffffffffffffffffff16600b6000600184610ad19190613c7c565b815260200190815260200160002060020160009054906101000a900473ffffffffffffffffffffffffffffffffffffffff1673ffffffffffffffffffffffffffffffffffffffff161415610b2f57600183610b2c9190613c7c565b92505b8080610b3a90613e67565b915050610aa1565b5060008267ffffffffffffffff811115610b85577f4e487b7100000000000000000000000000000000000000000000000000000000600052604160045260246000fd5b604051908082528060200260200182016040528015610bbe57816020015b610bab612dc4565b815260200190600190039081610ba35790505b50905060005b84811015610dc4573373ffffffffffffffffffffffffffffffffffffffff16600b6000600184610bf49190613c7c565b815260200190815260200160002060020160009054906101000a900473ffffffffffffffffffffffffffffffffffffffff1673ffffffffffffffffffffffffffffffffffffffff161415610db1576000600182610c519190613c7c565b90506000600b60008381526020019081526020016000209050806040518060c0016040529081600082015481526020016001820160009054906101000a900473ffffffffffffffffffffffffffffffffffffffff1673ffffffffffffffffffffffffffffffffffffffff1673ffffffffffffffffffffffffffffffffffffffff1681526020016002820160009054906101000a900473ffffffffffffffffffffffffffffffffffffffff1673ffffffffffffffffffffffffffffffffffffffff1673ffffffffffffffffffffffffffffffffffffffff168152602001600382015481526020016004820160009054906101000a900460ff16151515158152602001600582015481525050848681518110610d94577f4e487b7100000000000000000000000000000000000000000000000000000000600052603260045260246000fd5b6020026020010181905250600185610dac9190613c7c565b945050505b8080610dbc90613e67565b915050610bc4565b508094505050505090565b610de0610dda611c63565b82611d32565b610e1f576040517f08c379a0000000000000000000000000000000000000000000000000000000008152600401610e16906138fe565b60405180910390fd5b610e2a838383611dc7565b505050565b610e4a83838360405180602001604052806000815250611457565b505050565b60606000610e5d6007611d24565b905060008060005b83811015610f06573373ffffffffffffffffffffffffffffffffffffffff16600b6000600184610e959190613c7c565b815260200190815260200160002060010160009054906101000a900473ffffffffffffffffffffffffffffffffffffffff1673ffffffffffffffffffffffffffffffffffffffff161415610ef357600183610ef09190613c7c565b92505b8080610efe90613e67565b915050610e65565b5060008267ffffffffffffffff811115610f49577f4e487b7100000000000000000000000000000000000000000000000000000000600052604160045260246000fd5b604051908082528060200260200182016040528015610f8257816020015b610f6f612dc4565b815260200190600190039081610f675790505b50905060005b84811015611188573373ffffffffffffffffffffffffffffffffffffffff16600b6000600184610fb89190613c7c565b815260200190815260200160002060010160009054906101000a900473ffffffffffffffffffffffffffffffffffffffff1673ffffffffffffffffffffffffffffffffffffffff1614156111755760006001826110159190613c7c565b90506000600b60008381526020019081526020016000209050806040518060c0016040529081600082015481526020016001820160009054906101000a900473ffffffffffffffffffffffffffffffffffffffff1673ffffffffffffffffffffffffffffffffffffffff1673ffffffffffffffffffffffffffffffffffffffff1681526020016002820160009054906101000a900473ffffffffffffffffffffffffffffffffffffffff1673ffffffffffffffffffffffffffffffffffffffff1673ffffffffffffffffffffffffffffffffffffffff168152602001600382015481526020016004820160009054906101000a900460ff16151515158152602001600582015481525050848681518110611158577f4e487b7100000000000000000000000000000000000000000000000000000000600052603260045260246000fd5b60200260200101819052506001856111709190613c7c565b945050505b808061118090613e67565b915050610f88565b508094505050505090565b60008061119f836120c1565b9050600073ffffffffffffffffffffffffffffffffffffffff168173ffffffffffffffffffffffffffffffffffffffff161415611211576040517f08c379a000000000000000000000000000000000000000000000000000000000815260040161120890613a9e565b60405180910390fd5b80915050919050565b60008073ffffffffffffffffffffffffffffffffffffffff168273ffffffffffffffffffffffffffffffffffffffff16141561128b576040517f08c379a0000000000000000000000000000000000000000000000000000000008152600401611282906139de565b60405180910390fd5b600360008373ffffffffffffffffffffffffffffffffffffffff1673ffffffffffffffffffffffffffffffffffffffff168152602001908152602001600020549050919050565b60006112de60076120fe565b60006112ea6007611d24565b90506112f63382612114565b6113008185612332565b61130b8184866123a6565b8091505092915050565b60606001805461132490613e04565b80601f016020809104026020016040519081016040528092919081815260200182805461135090613e04565b801561139d5780601f106113725761010080835404028352916020019161139d565b820191906000526020600020905b81548152906001019060200180831161138057829003601f168201915b5050505050905090565b6113b96113b2611c63565b83836125be565b5050565b3373ffffffffffffffffffffffffffffffffffffffff16600a60009054906101000a900473ffffffffffffffffffffffffffffffffffffffff1673ffffffffffffffffffffffffffffffffffffffff161461144d576040517f08c379a000000000000000000000000000000000000000000000000000000000815260040161144490613b1e565b60405180910390fd5b8060098190555050565b611468611462611c63565b83611d32565b6114a7576040517f08c379a000000000000000000000000000000000000000000000000000000000815260040161149e906138fe565b60405180910390fd5b6114b38484848461272b565b50505050565b3373ffffffffffffffffffffffffffffffffffffffff16600b600083815260200190815260200160002060010160009054906101000a900473ffffffffffffffffffffffffffffffffffffffff1673ffffffffffffffffffffffffffffffffffffffff16141561155e576040517f08c379a000000000000000000000000000000000000000000000000000000000815260040161155590613a7e565b60405180910390fd5b6000600b60008381526020019081526020016000206003015490506000600b600084815260200190815260200160002060010160009054906101000a900473ffffffffffffffffffffffffffffffffffffffff1690508134146115f6576040517f08c379a00000000000000000000000000000000000000000000000000000000081526004016115ed90613a1e565b60405180910390fd5b33600b600085815260200190815260200160002060020160006101000a81548173ffffffffffffffffffffffffffffffffffffffff021916908373ffffffffffffffffffffffffffffffffffffffff1602179055506001600b600085815260200190815260200160002060040160006101000a81548160ff0219169083151502179055506000600b600085815260200190815260200160002060010160006101000a81548173ffffffffffffffffffffffffffffffffffffffff021916908373ffffffffffffffffffffffffffffffffffffffff1602179055506116da60086120fe565b6116e5303385611dc7565b600a60009054906101000a900473ffffffffffffffffffffffffffffffffffffffff1673ffffffffffffffffffffffffffffffffffffffff166108fc6009549081150290604051600060405180830381858888f1935050505015801561174f573d6000803e3d6000fd5b508073ffffffffffffffffffffffffffffffffffffffff166108fc349081150290604051600060405180830381858888f19350505050158015611796573d6000803e3d6000fd5b50827fd626d9ae0be33aba3a2b9d21e0998f4230250ac031fe3dee1655d28c8920071a82336040516117c992919061378b565b60405180910390a2505050565b60606117e182611c18565b600060066000848152602001908152602001600020805461180190613e04565b80601f016020809104026020016040519081016040528092919081815260200182805461182d90613e04565b801561187a5780601f1061184f5761010080835404028352916020019161187a565b820191906000526020600020905b81548152906001019060200180831161185d57829003601f168201915b50505050509050600061188b612787565b90506000815114156118a15781925050506118e4565b6000825111156118d65780826040516020016118be92919061374c565b604051602081830303815290604052925050506118e4565b6118df8461279e565b925050505b919050565b3373ffffffffffffffffffffffffffffffffffffffff16600b600084815260200190815260200160002060020160009054906101000a900473ffffffffffffffffffffffffffffffffffffffff1673ffffffffffffffffffffffffffffffffffffffff161461198d576040517f08c379a000000000000000000000000000000000000000000000000000000000815260040161198490613a5e565b60405180910390fd5b60095434146119d1576040517f08c379a00000000000000000000000000000000000000000000000000000000081526004016119c890613ade565b60405180910390fd5b6000600b600084815260200190815260200160002060040160006101000a81548160ff02191690831515021790555080600b60008481526020019081526020016000206003018190555033600b600084815260200190815260200160002060010160006101000a81548173ffffffffffffffffffffffffffffffffffffffff021916908373ffffffffffffffffffffffffffffffffffffffff16021790555030600b600084815260200190815260200160002060020160006101000a81548173ffffffffffffffffffffffffffffffffffffffff021916908373ffffffffffffffffffffffffffffffffffffffff160217905550611acf6008612806565b611ada333084611dc7565b817fae297008b2d84a4a5cde30c2f8087db48b5174e497e1c665102d9366c3ad8bd9333084604051611b0e939291906137b4565b60405180910390a25050565b6000600560008473ffffffffffffffffffffffffffffffffffffffff1673ffffffffffffffffffffffffffffffffffffffff16815260200190815260200160002060008373ffffffffffffffffffffffffffffffffffffffff1673ffffffffffffffffffffffffffffffffffffffff16815260200190815260200160002060009054906101000a900460ff16905092915050565b60007f01ffc9a7000000000000000000000000000000000000000000000000000000007bffffffffffffffffffffffffffffffffffffffffffffffffffffffff1916827bffffffffffffffffffffffffffffffffffffffffffffffffffffffff1916149050919050565b611c2181612862565b611c60576040517f08c379a0000000000000000000000000000000000000000000000000000000008152600401611c5790613a9e565b60405180910390fd5b50565b600033905090565b816004600083815260200190815260200160002060006101000a81548173ffffffffffffffffffffffffffffffffffffffff021916908373ffffffffffffffffffffffffffffffffffffffff160217905550808273ffffffffffffffffffffffffffffffffffffffff16611cde83611193565b73ffffffffffffffffffffffffffffffffffffffff167f8c5be1e5ebec7d5bd14f71427d1e84f3dd0314c0f7b2291e5b200ac8c7c3b92560405160405180910390a45050565b600081600001549050919050565b600080611d3e83611193565b90508073ffffffffffffffffffffffffffffffffffffffff168473ffffffffffffffffffffffffffffffffffffffff161480611d805750611d7f8185611b1a565b5b80611dbe57508373ffffffffffffffffffffffffffffffffffffffff16611da684610664565b73ffffffffffffffffffffffffffffffffffffffff16145b91505092915050565b8273ffffffffffffffffffffffffffffffffffffffff16611de782611193565b73ffffffffffffffffffffffffffffffffffffffff1614611e3d576040517f08c379a0000000000000000000000000000000000000000000000000000000008152600401611e349061395e565b60405180910390fd5b600073ffffffffffffffffffffffffffffffffffffffff168273ffffffffffffffffffffffffffffffffffffffff161415611ead576040517f08c379a0000000000000000000000000000000000000000000000000000000008152600401611ea49061399e565b60405180910390fd5b611eba83838360016128a3565b8273ffffffffffffffffffffffffffffffffffffffff16611eda82611193565b73ffffffffffffffffffffffffffffffffffffffff1614611f30576040517f08c379a0000000000000000000000000000000000000000000000000000000008152600401611f279061395e565b60405180910390fd5b6004600082815260200190815260200160002060006101000a81549073ffffffffffffffffffffffffffffffffffffffff02191690556001600360008573ffffffffffffffffffffffffffffffffffffffff1673ffffffffffffffffffffffffffffffffffffffff168152602001908152602001600020600082825403925050819055506001600360008473ffffffffffffffffffffffffffffffffffffffff1673ffffffffffffffffffffffffffffffffffffffff16815260200190815260200160002060008282540192505081905550816002600083815260200190815260200160002060006101000a81548173ffffffffffffffffffffffffffffffffffffffff021916908373ffffffffffffffffffffffffffffffffffffffff160217905550808273ffffffffffffffffffffffffffffffffffffffff168473ffffffffffffffffffffffffffffffffffffffff167fddf252ad1be2c89b69c2b068fc378daa952ba7f163c4a11628f55a4df523b3ef60405160405180910390a46120bc83838360016128a9565b505050565b60006002600083815260200190815260200160002060009054906101000a900473ffffffffffffffffffffffffffffffffffffffff169050919050565b6001816000016000828254019250508190555050565b600073ffffffffffffffffffffffffffffffffffffffff168273ffffffffffffffffffffffffffffffffffffffff161415612184576040517f08c379a000000000000000000000000000000000000000000000000000000000815260040161217b90613a3e565b60405180910390fd5b61218d81612862565b156121cd576040517f08c379a00000000000000000000000000000000000000000000000000000000081526004016121c49061397e565b60405180910390fd5b6121db6000838360016128a3565b6121e481612862565b15612224576040517f08c379a000000000000000000000000000000000000000000000000000000000815260040161221b9061397e565b60405180910390fd5b6001600360008473ffffffffffffffffffffffffffffffffffffffff1673ffffffffffffffffffffffffffffffffffffffff16815260200190815260200160002060008282540192505081905550816002600083815260200190815260200160002060006101000a81548173ffffffffffffffffffffffffffffffffffffffff021916908373ffffffffffffffffffffffffffffffffffffffff160217905550808273ffffffffffffffffffffffffffffffffffffffff16600073ffffffffffffffffffffffffffffffffffffffff167fddf252ad1be2c89b69c2b068fc378daa952ba7f163c4a11628f55a4df523b3ef60405160405180910390a461232e6000838360016128a9565b5050565b61233b82612862565b61237a576040517f08c379a0000000000000000000000000000000000000000000000000000000008152600401612371906139fe565b60405180910390fd5b806006600084815260200190815260200160002090805190602001906123a1929190612e28565b505050565b600082116123e9576040517f08c379a00000000000000000000000000000000000000000000000000000000081526004016123e090613b3e565b60405180910390fd5b600954341461242d576040517f08c379a000000000000000000000000000000000000000000000000000000000815260040161242490613ade565b60405180910390fd5b6040518060c001604052808481526020013373ffffffffffffffffffffffffffffffffffffffff1681526020013073ffffffffffffffffffffffffffffffffffffffff16815260200183815260200160001515815260200142815250600b60008581526020019081526020016000206000820151816000015560208201518160010160006101000a81548173ffffffffffffffffffffffffffffffffffffffff021916908373ffffffffffffffffffffffffffffffffffffffff16021790555060408201518160020160006101000a81548173ffffffffffffffffffffffffffffffffffffffff021916908373ffffffffffffffffffffffffffffffffffffffff1602179055506060820151816003015560808201518160040160006101000a81548160ff02191690831515021790555060a08201518160050155905050612576333085611dc7565b827f87ef5bf18d8c9c92dc918a8918ec2a2041baaf441676899f03d7eb8b958332b7823330866000426040516125b196959493929190613896565b60405180910390a2505050565b8173ffffffffffffffffffffffffffffffffffffffff168373ffffffffffffffffffffffffffffffffffffffff16141561262d576040517f08c379a0000000000000000000000000000000000000000000000000000000008152600401612624906139be565b60405180910390fd5b80600560008573ffffffffffffffffffffffffffffffffffffffff1673ffffffffffffffffffffffffffffffffffffffff16815260200190815260200160002060008473ffffffffffffffffffffffffffffffffffffffff1673ffffffffffffffffffffffffffffffffffffffff16815260200190815260200160002060006101000a81548160ff0219169083151502179055508173ffffffffffffffffffffffffffffffffffffffff168373ffffffffffffffffffffffffffffffffffffffff167f17307eab39ab6107e8899845ad3d59bd9653f200f220920489ca2b5937696c318360405161271e9190613859565b60405180910390a3505050565b612736848484611dc7565b612742848484846128af565b612781576040517f08c379a00000000000000000000000000000000000000000000000000000000081526004016127789061393e565b60405180910390fd5b50505050565b606060405180602001604052806000815250905090565b60606127a982611c18565b60006127b3612787565b905060008151116127d357604051806020016040528060008152506127fe565b806127dd84612a46565b6040516020016127ee92919061374c565b6040516020818303038152906040525b915050919050565b60008160000154905060008111612852576040517f08c379a00000000000000000000000000000000000000000000000000000000081526004016128499061391e565b60405180910390fd5b6001810382600001819055505050565b60008073ffffffffffffffffffffffffffffffffffffffff16612884836120c1565b73ffffffffffffffffffffffffffffffffffffffff1614159050919050565b50505050565b50505050565b60006128d08473ffffffffffffffffffffffffffffffffffffffff16612b6a565b15612a39578373ffffffffffffffffffffffffffffffffffffffff1663150b7a026128f9611c63565b8786866040518563ffffffff1660e01b815260040161291b94939291906137eb565b602060405180830381600087803b15801561293557600080fd5b505af192505050801561296657506040513d601f19601f8201168201806040525081019061296391906131d4565b60015b6129e9573d8060008114612996576040519150601f19603f3d011682016040523d82523d6000602084013e61299b565b606091505b506000815114156129e1576040517f08c379a00000000000000000000000000000000000000000000000000000000081526004016129d89061393e565b60405180910390fd5b805181602001fd5b63150b7a0260e01b7bffffffffffffffffffffffffffffffffffffffffffffffffffffffff1916817bffffffffffffffffffffffffffffffffffffffffffffffffffffffff191614915050612a3e565b600190505b949350505050565b606060006001612a5584612b8d565b01905060008167ffffffffffffffff811115612a9a577f4e487b7100000000000000000000000000000000000000000000000000000000600052604160045260246000fd5b6040519080825280601f01601f191660200182016040528015612acc5781602001600182028036833780820191505090505b509050600082602001820190505b600115612b5f578080600190039150507f3031323334353637383961626364656600000000000000000000000000000000600a86061a8153600a8581612b49577f4e487b7100000000000000000000000000000000000000000000000000000000600052601260045260246000fd5b0494506000851415612b5a57612b5f565b612ada565b819350505050919050565b6000808273ffffffffffffffffffffffffffffffffffffffff163b119050919050565b600080600090507a184f03e93ff9f4daa797ed6e38ed64bf6a1f0100000000000000008310612c11577a184f03e93ff9f4daa797ed6e38ed64bf6a1f0100000000000000008381612c07577f4e487b7100000000000000000000000000000000000000000000000000000000600052601260045260246000fd5b0492506040810190505b6d04ee2d6d415b85acef81000000008310612c74576d04ee2d6d415b85acef81000000008381612c6a577f4e487b7100000000000000000000000000000000000000000000000000000000600052601260045260246000fd5b0492506020810190505b662386f26fc100008310612cc957662386f26fc100008381612cbf577f4e487b7100000000000000000000000000000000000000000000000000000000600052601260045260246000fd5b0492506010810190505b6305f5e1008310612d18576305f5e1008381612d0e577f4e487b7100000000000000000000000000000000000000000000000000000000600052601260045260246000fd5b0492506008810190505b6127108310612d63576127108381612d59577f4e487b7100000000000000000000000000000000000000000000000000000000600052601260045260246000fd5b0492506004810190505b60648310612dac5760648381612da2577f4e487b7100000000000000000000000000000000000000000000000000000000600052601260045260246000fd5b0492506002810190505b600a8310612dbb576001810190505b80915050919050565b6040518060c0016040528060008152602001600073ffffffffffffffffffffffffffffffffffffffff168152602001600073ffffffffffffffffffffffffffffffffffffffff16815260200160008152602001600015158152602001600081525090565b828054612e3490613e04565b90600052602060002090601f016020900481019282612e565760008555612e9d565b82601f10612e6f57805160ff1916838001178555612e9d565b82800160010185558215612e9d579182015b82811115612e9c578251825591602001919060010190612e81565b5b509050612eaa9190612eae565b5090565b5b80821115612ec7576000816000905550600101612eaf565b5090565b6000612ede612ed984613b9e565b613b79565b905082815260208101848484011115612ef657600080fd5b612f01848285613dc2565b509392505050565b6000612f1c612f1784613bcf565b613b79565b905082815260208101848484011115612f3457600080fd5b612f3f848285613dc2565b509392505050565b600081359050612f5681614447565b92915050565b600081359050612f6b8161445e565b92915050565b600081359050612f8081614475565b92915050565b600081519050612f9581614475565b92915050565b600082601f830112612fac57600080fd5b8135612fbc848260208601612ecb565b91505092915050565b600082601f830112612fd657600080fd5b8135612fe6848260208601612f09565b91505092915050565b600081359050612ffe8161448c565b92915050565b60006020828403121561301657600080fd5b600061302484828501612f47565b91505092915050565b6000806040838503121561304057600080fd5b600061304e85828601612f47565b925050602061305f85828601612f47565b9150509250929050565b60008060006060848603121561307e57600080fd5b600061308c86828701612f47565b935050602061309d86828701612f47565b92505060406130ae86828701612fef565b9150509250925092565b600080600080608085870312156130ce57600080fd5b60006130dc87828801612f47565b94505060206130ed87828801612f47565b93505060406130fe87828801612fef565b925050606085013567ffffffffffffffff81111561311b57600080fd5b61312787828801612f9b565b91505092959194509250565b6000806040838503121561314657600080fd5b600061315485828601612f47565b925050602061316585828601612f5c565b9150509250929050565b6000806040838503121561318257600080fd5b600061319085828601612f47565b92505060206131a185828601612fef565b9150509250929050565b6000602082840312156131bd57600080fd5b60006131cb84828501612f71565b91505092915050565b6000602082840312156131e657600080fd5b60006131f484828501612f86565b91505092915050565b6000806040838503121561321057600080fd5b600083013567ffffffffffffffff81111561322a57600080fd5b61323685828601612fc5565b925050602061324785828601612fef565b9150509250929050565b60006020828403121561326357600080fd5b600061327184828501612fef565b91505092915050565b6000806040838503121561328d57600080fd5b600061329b85828601612fef565b92505060206132ac85828601612fef565b9150509250929050565b60006132c283836136b3565b60c08301905092915050565b6132d781613d8c565b82525050565b6132e681613d18565b82525050565b6132f581613d06565b82525050565b600061330682613c10565b6133108185613c3e565b935061331b83613c00565b8060005b8381101561334c57815161333388826132b6565b975061333e83613c31565b92505060018101905061331f565b5085935050505092915050565b61336281613d2a565b82525050565b61337181613d2a565b82525050565b600061338282613c1b565b61338c8185613c4f565b935061339c818560208601613dd1565b6133a581613f3d565b840191505092915050565b60006133bb82613c26565b6133c58185613c60565b93506133d5818560208601613dd1565b6133de81613f3d565b840191505092915050565b60006133f482613c26565b6133fe8185613c71565b935061340e818560208601613dd1565b80840191505092915050565b6000613427602d83613c60565b915061343282613f4e565b604082019050919050565b600061344a601b83613c60565b915061345582613f9d565b602082019050919050565b600061346d603283613c60565b915061347882613fc6565b604082019050919050565b6000613490602583613c60565b915061349b82614015565b604082019050919050565b60006134b3601c83613c60565b91506134be82614064565b602082019050919050565b60006134d6602483613c60565b91506134e18261408d565b604082019050919050565b60006134f9601983613c60565b9150613504826140dc565b602082019050919050565b600061351c602983613c60565b915061352782614105565b604082019050919050565b600061353f602e83613c60565b915061354a82614154565b604082019050919050565b6000613562604083613c60565b915061356d826141a3565b604082019050919050565b6000613585602083613c60565b9150613590826141f2565b602082019050919050565b60006135a8602a83613c60565b91506135b38261421b565b604082019050919050565b60006135cb602183613c60565b91506135d68261426a565b604082019050919050565b60006135ee601883613c60565b91506135f9826142b9565b602082019050919050565b6000613611602183613c60565b915061361c826142e2565b604082019050919050565b6000613634602483613c60565b915061363f82614331565b604082019050919050565b6000613657603d83613c60565b915061366282614380565b604082019050919050565b600061367a603083613c60565b9150613685826143cf565b604082019050919050565b600061369d601c83613c60565b91506136a88261441e565b602082019050919050565b60c0820160008201516136c9600085018261372e565b5060208201516136dc60208501826132dd565b5060408201516136ef60408501826132dd565b506060820151613702606085018261372e565b5060808201516137156080850182613359565b5060a082015161372860a085018261372e565b50505050565b61373781613d82565b82525050565b61374681613d82565b82525050565b600061375882856133e9565b915061376482846133e9565b91508190509392505050565b600060208201905061378560008301846132ec565b92915050565b60006040820190506137a060008301856132ec565b6137ad60208301846132ce565b9392505050565b60006060820190506137c960008301866132ec565b6137d660208301856132ce565b6137e3604083018461373d565b949350505050565b600060808201905061380060008301876132ec565b61380d60208301866132ec565b61381a604083018561373d565b818103606083015261382c8184613377565b905095945050505050565b6000602082019050818103600083015261385181846132fb565b905092915050565b600060208201905061386e6000830184613368565b92915050565b6000602082019050818103600083015261388e81846133b0565b905092915050565b600060c08201905081810360008301526138b081896133b0565b90506138bf60208301886132ec565b6138cc60408301876132ec565b6138d9606083018661373d565b6138e66080830185613368565b6138f360a083018461373d565b979650505050505050565b600060208201905081810360008301526139178161341a565b9050919050565b600060208201905081810360008301526139378161343d565b9050919050565b6000602082019050818103600083015261395781613460565b9050919050565b6000602082019050818103600083015261397781613483565b9050919050565b60006020820190508181036000830152613997816134a6565b9050919050565b600060208201905081810360008301526139b7816134c9565b9050919050565b600060208201905081810360008301526139d7816134ec565b9050919050565b600060208201905081810360008301526139f78161350f565b9050919050565b60006020820190508181036000830152613a1781613532565b9050919050565b60006020820190508181036000830152613a3781613555565b9050919050565b60006020820190508181036000830152613a5781613578565b9050919050565b60006020820190508181036000830152613a778161359b565b9050919050565b60006020820190508181036000830152613a97816135be565b9050919050565b60006020820190508181036000830152613ab7816135e1565b9050919050565b60006020820190508181036000830152613ad781613604565b9050919050565b60006020820190508181036000830152613af781613627565b9050919050565b60006020820190508181036000830152613b178161364a565b9050919050565b60006020820190508181036000830152613b378161366d565b9050919050565b60006020820190508181036000830152613b5781613690565b9050919050565b6000602082019050613b73600083018461373d565b92915050565b6000613b83613b94565b9050613b8f8282613e36565b919050565b6000604051905090565b600067ffffffffffffffff821115613bb957613bb8613f0e565b5b613bc282613f3d565b9050602081019050919050565b600067ffffffffffffffff821115613bea57613be9613f0e565b5b613bf382613f3d565b9050602081019050919050565b6000819050602082019050919050565b600081519050919050565b600081519050919050565b600081519050919050565b6000602082019050919050565b600082825260208201905092915050565b600082825260208201905092915050565b600082825260208201905092915050565b600081905092915050565b6000613c8782613d82565b9150613c9283613d82565b9250827fffffffffffffffffffffffffffffffffffffffffffffffffffffffffffffffff03821115613cc757613cc6613eb0565b5b828201905092915050565b6000613cdd82613d82565b9150613ce883613d82565b925082821015613cfb57613cfa613eb0565b5b828203905092915050565b6000613d1182613d62565b9050919050565b6000613d2382613d62565b9050919050565b60008115159050919050565b60007fffffffff0000000000000000000000000000000000000000000000000000000082169050919050565b600073ffffffffffffffffffffffffffffffffffffffff82169050919050565b6000819050919050565b6000613d9782613d9e565b9050919050565b6000613da982613db0565b9050919050565b6000613dbb82613d62565b9050919050565b82818337600083830152505050565b60005b83811015613def578082015181840152602081019050613dd4565b83811115613dfe576000848401525b50505050565b60006002820490506001821680613e1c57607f821691505b60208210811415613e3057613e2f613edf565b5b50919050565b613e3f82613f3d565b810181811067ffffffffffffffff82111715613e5e57613e5d613f0e565b5b80604052505050565b6000613e7282613d82565b91507fffffffffffffffffffffffffffffffffffffffffffffffffffffffffffffffff821415613ea557613ea4613eb0565b5b600182019050919050565b7f4e487b7100000000000000000000000000000000000000000000000000000000600052601160045260246000fd5b7f4e487b7100000000000000000000000000000000000000000000000000000000600052602260045260246000fd5b7f4e487b7100000000000000000000000000000000000000000000000000000000600052604160045260246000fd5b6000601f19601f8301169050919050565b7f4552433732313a2063616c6c6572206973206e6f7420746f6b656e206f776e6560008201527f72206f7220617070726f76656400000000000000000000000000000000000000602082015250565b7f436f756e7465723a2064656372656d656e74206f766572666c6f770000000000600082015250565b7f4552433732313a207472616e7366657220746f206e6f6e20455243373231526560008201527f63656976657220696d706c656d656e7465720000000000000000000000000000602082015250565b7f4552433732313a207472616e736665722066726f6d20696e636f72726563742060008201527f6f776e6572000000000000000000000000000000000000000000000000000000602082015250565b7f4552433732313a20746f6b656e20616c7265616479206d696e74656400000000600082015250565b7f4552433732313a207472616e7366657220746f20746865207a65726f2061646460008201527f7265737300000000000000000000000000000000000000000000000000000000602082015250565b7f4552433732313a20617070726f766520746f2063616c6c657200000000000000600082015250565b7f4552433732313a2061646472657373207a65726f206973206e6f74206120766160008201527f6c6964206f776e65720000000000000000000000000000000000000000000000602082015250565b7f45524337323155524953746f726167653a2055524920736574206f66206e6f6e60008201527f6578697374656e7420746f6b656e000000000000000000000000000000000000602082015250565b7f506c65617365207375626d6974207468652061736b696e67207072696365206960008201527f6e206f7264657220746f20636f6d706c65746520746865207075726368617365602082015250565b7f4552433732313a206d696e7420746f20746865207a65726f2061646472657373600082015250565b7f4f6e6c79206974656d206f776e65722063616e20706572666f726d207468697360008201527f206f7065726174696f6e00000000000000000000000000000000000000000000602082015250565b7f43616e206e6f7420627579206974656d2063726561746520627920757273656c60008201527f6600000000000000000000000000000000000000000000000000000000000000602082015250565b7f4552433732313a20696e76616c696420746f6b656e2049440000000000000000600082015250565b7f4552433732313a20617070726f76616c20746f2063757272656e74206f776e6560008201527f7200000000000000000000000000000000000000000000000000000000000000602082015250565b7f5072696365206d75737420626520657175616c20746f206c697374696e67207060008201527f7269636500000000000000000000000000000000000000000000000000000000602082015250565b7f4552433732313a20617070726f76652063616c6c6572206973206e6f7420746f60008201527f6b656e206f776e6572206f7220617070726f76656420666f7220616c6c000000602082015250565b7f4f6e6c79206d61726b6574706c616365206f776e65722063616e20757064617460008201527f65206c697374696e672070726963652e00000000000000000000000000000000602082015250565b7f5072696365206d757374206265206174206c6561737420312077656900000000600082015250565b61445081613d06565b811461445b57600080fd5b50565b61446781613d2a565b811461447257600080fd5b50565b61447e81613d36565b811461448957600080fd5b50565b61449581613d82565b81146144a057600080fd5b5056fea2646970667358221220c71cbe8046093a7e33e4598b64a17f37f4598288e0421372fc33f529a33fdc8b64736f6c63430008040033",
  "linkReferences": {},
  "deployedLinkReferences": {}
}